{
  "_format": "hh-sol-artifact-1",
  "contractName": "SupplyChainTracking",
  "sourceName": "contracts/SupplyChainTracking.sol",
  "abi": [
    {
      "inputs": [],
      "stateMutability": "nonpayable",
      "type": "constructor"
    },
    {
      "inputs": [],
      "name": "OnlyAssetOwner",
      "type": "error"
    },
    {
      "inputs": [
        {
          "internalType": "address",
          "name": "owner",
          "type": "address"
        }
      ],
      "name": "OwnableInvalidOwner",
      "type": "error"
    },
    {
      "inputs": [
        {
          "internalType": "address",
          "name": "account",
          "type": "address"
        }
      ],
      "name": "OwnableUnauthorizedAccount",
      "type": "error"
    },
    {
      "anonymous": false,
      "inputs": [
        {
          "indexed": false,
          "internalType": "address",
          "name": "actor",
          "type": "address"
        }
      ],
      "name": "ActorDisabled",
      "type": "event"
    },
    {
      "anonymous": false,
      "inputs": [
        {
          "indexed": false,
          "internalType": "address",
          "name": "actor",
          "type": "address"
        },
        {
          "indexed": false,
          "internalType": "enum SupplyChainTracking.Role",
          "name": "role",
          "type": "uint8"
        }
      ],
      "name": "ActorRegistered",
      "type": "event"
    },
    {
      "anonymous": false,
      "inputs": [
        {
          "indexed": false,
          "internalType": "uint256",
          "name": "productId",
          "type": "uint256"
        }
      ],
      "name": "AssetRegistered",
      "type": "event"
    },
    {
      "anonymous": false,
      "inputs": [
        {
          "indexed": false,
          "internalType": "uint256",
          "name": "productId",
          "type": "uint256"
        },
        {
          "indexed": false,
          "internalType": "address",
          "name": "_from",
          "type": "address"
        },
        {
          "indexed": false,
          "internalType": "address",
          "name": "_to",
          "type": "address"
        }
      ],
      "name": "AssetTransfered",
      "type": "event"
    },
    {
      "anonymous": false,
      "inputs": [
        {
          "indexed": true,
          "internalType": "address",
          "name": "previousOwner",
          "type": "address"
        },
        {
          "indexed": true,
          "internalType": "address",
          "name": "newOwner",
          "type": "address"
        }
      ],
      "name": "OwnershipTransferred",
      "type": "event"
    },
    {
      "inputs": [
        {
          "internalType": "uint256",
          "name": "",
          "type": "uint256"
        }
      ],
      "name": "assets",
      "outputs": [
        {
          "internalType": "uint256",
          "name": "productId",
          "type": "uint256"
        },
        {
          "internalType": "string",
          "name": "productType",
          "type": "string"
        },
        {
          "internalType": "uint256",
          "name": "productionDate",
          "type": "uint256"
        },
        {
          "internalType": "string",
          "name": "origin",
          "type": "string"
        },
        {
          "internalType": "address",
          "name": "currentHolder",
          "type": "address"
        }
      ],
      "stateMutability": "view",
      "type": "function"
    },
    {
      "inputs": [
        {
          "internalType": "address",
          "name": "_actor",
          "type": "address"
        }
      ],
      "name": "disableActor",
      "outputs": [],
      "stateMutability": "nonpayable",
      "type": "function"
    },
    {
      "inputs": [
        {
          "internalType": "address",
          "name": "_actor",
          "type": "address"
        }
      ],
      "name": "getActor",
      "outputs": [
        {
          "internalType": "enum SupplyChainTracking.Role",
          "name": "",
          "type": "uint8"
        },
        {
          "internalType": "bool",
          "name": "",
          "type": "bool"
        }
      ],
      "stateMutability": "view",
      "type": "function"
    },
    {
      "inputs": [
        {
          "internalType": "uint256",
          "name": "_assetId",
          "type": "uint256"
        }
      ],
      "name": "getAsset",
      "outputs": [
        {
          "internalType": "string",
          "name": "",
          "type": "string"
        },
        {
          "internalType": "uint256",
          "name": "",
          "type": "uint256"
        },
        {
          "internalType": "string",
          "name": "",
          "type": "string"
        },
        {
          "internalType": "address",
          "name": "",
          "type": "address"
        },
        {
          "internalType": "address[]",
          "name": "",
          "type": "address[]"
        }
      ],
      "stateMutability": "view",
      "type": "function"
    },
    {
      "inputs": [
        {
          "internalType": "uint256",
          "name": "_assetId",
          "type": "uint256"
        }
      ],
      "name": "getAssetCurrentHolder",
      "outputs": [
        {
          "internalType": "address",
          "name": "",
          "type": "address"
        }
      ],
      "stateMutability": "view",
      "type": "function"
    },
    {
      "inputs": [
        {
          "internalType": "uint256",
          "name": "_assetId",
          "type": "uint256"
        }
      ],
      "name": "getAssetHolderHistory",
      "outputs": [
        {
          "internalType": "address[]",
          "name": "",
          "type": "address[]"
        }
      ],
      "stateMutability": "view",
      "type": "function"
    },
    {
      "inputs": [],
      "name": "getTotalAssetNumber",
      "outputs": [
        {
          "internalType": "uint256",
          "name": "",
          "type": "uint256"
        }
      ],
      "stateMutability": "view",
      "type": "function"
    },
    {
      "inputs": [],
      "name": "owner",
      "outputs": [
        {
          "internalType": "address",
          "name": "",
          "type": "address"
        }
      ],
      "stateMutability": "view",
      "type": "function"
    },
    {
      "inputs": [
        {
          "internalType": "address",
          "name": "_actor",
          "type": "address"
        },
        {
          "internalType": "enum SupplyChainTracking.Role",
          "name": "_role",
          "type": "uint8"
        }
      ],
      "name": "registerActor",
      "outputs": [],
      "stateMutability": "nonpayable",
      "type": "function"
    },
    {
      "inputs": [
        {
          "internalType": "string",
          "name": "_productType",
          "type": "string"
        },
        {
          "internalType": "uint256",
          "name": "_productionDate",
          "type": "uint256"
        },
        {
          "internalType": "string",
          "name": "_origin",
          "type": "string"
        }
      ],
      "name": "registerAsset",
      "outputs": [],
      "stateMutability": "nonpayable",
      "type": "function"
    },
    {
      "inputs": [],
      "name": "renounceOwnership",
      "outputs": [],
      "stateMutability": "nonpayable",
      "type": "function"
    },
    {
      "inputs": [
        {
          "internalType": "uint256",
          "name": "_assetId",
          "type": "uint256"
        },
        {
          "internalType": "address",
          "name": "_newHolder",
          "type": "address"
        }
      ],
      "name": "transferAsset",
      "outputs": [],
      "stateMutability": "nonpayable",
      "type": "function"
    },
    {
      "inputs": [
        {
          "internalType": "address",
          "name": "newOwner",
          "type": "address"
        }
      ],
      "name": "transferOwnership",
      "outputs": [],
      "stateMutability": "nonpayable",
      "type": "function"
    }
  ],
  "bytecode": "0x60806040523480156200001157600080fd5b5033600073ffffffffffffffffffffffffffffffffffffffff168173ffffffffffffffffffffffffffffffffffffffff1603620000885760006040517f1e4fbdf70000000000000000000000000000000000000000000000000000000081526004016200007f9190620001b0565b60405180910390fd5b6200009981620000a760201b60201c565b5060018081905550620001cd565b60008060009054906101000a900473ffffffffffffffffffffffffffffffffffffffff169050816000806101000a81548173ffffffffffffffffffffffffffffffffffffffff021916908373ffffffffffffffffffffffffffffffffffffffff1602179055508173ffffffffffffffffffffffffffffffffffffffff168173ffffffffffffffffffffffffffffffffffffffff167f8be0079c531659141344cd1fd0a4f28419497f9722a3daafe3b4186f6b6457e060405160405180910390a35050565b600073ffffffffffffffffffffffffffffffffffffffff82169050919050565b600062000198826200016b565b9050919050565b620001aa816200018b565b82525050565b6000602082019050620001c760008301846200019f565b92915050565b61211780620001dd6000396000f3fe608060405234801561001057600080fd5b50600436106100cf5760003560e01c8063cf35bdd01161008c578063eac8f5b811610066578063eac8f5b814610217578063f2fde38b1461024b578063f742c5b014610267578063fa62ee8d14610283576100cf565b8063cf35bdd0146101ab578063d5cbe157146101df578063de7ac991146101fb576100cf565b8063026e2d8c146100d45780634138d1671461010457806343247d03146101355780636446e62814610153578063715018a6146101835780638da5cb5b1461018d575b600080fd5b6100ee60048036038101906100e99190611445565b61029f565b6040516100fb91906114b3565b60405180910390f35b61011e600480360381019061011991906114fa565b610330565b60405161012c9291906115b9565b60405180910390f35b61013d6103e4565b60405161014a91906115f1565b60405180910390f35b61016d60048036038101906101689190611445565b6103f9565b60405161017a91906116ca565b60405180910390f35b61018b6104ee565b005b610195610502565b6040516101a291906114b3565b60405180910390f35b6101c560048036038101906101c09190611445565b61052b565b6040516101d695949392919061177c565b60405180910390f35b6101f960048036038101906101f491906114fa565b610691565b005b61021560048036038101906102109190611802565b61072e565b005b610231600480360381019061022c9190611445565b61082f565b604051610242959493929190611842565b60405180910390f35b610265600480360381019061026091906114fa565b610acd565b005b610281600480360381019061027c919061190f565b610b53565b005b61029d600480360381019061029891906119a4565b610e52565b005b6000600182101580156102b3575060015482105b6102f2576040517f08c379a00000000000000000000000000000000000000000000000000000000081526004016102e990611a56565b60405180910390fd5b6003600083815260200190815260200160002060040160009054906101000a900473ffffffffffffffffffffffffffffffffffffffff169050919050565b60008061033b6112b2565b600260008473ffffffffffffffffffffffffffffffffffffffff1673ffffffffffffffffffffffffffffffffffffffff16815260200190815260200160002060000160009054906101000a900460ff16600260008573ffffffffffffffffffffffffffffffffffffffff1673ffffffffffffffffffffffffffffffffffffffff16815260200190815260200160002060000160019054906101000a900460ff1691509150915091565b6000600180546103f49190611aa5565b905090565b60606001821015801561040d575060015482105b61044c576040517f08c379a000000000000000000000000000000000000000000000000000000000815260040161044390611a56565b60405180910390fd5b600360008381526020019081526020016000206005018054806020026020016040519081016040528092919081815260200182805480156104e257602002820191906000526020600020905b8160009054906101000a900473ffffffffffffffffffffffffffffffffffffffff1673ffffffffffffffffffffffffffffffffffffffff1681526020019060010190808311610498575b50505050509050919050565b6104f66112b2565b6105006000611339565b565b60008060009054906101000a900473ffffffffffffffffffffffffffffffffffffffff16905090565b600360205280600052604060002060009150905080600001549080600101805461055490611b08565b80601f016020809104026020016040519081016040528092919081815260200182805461058090611b08565b80156105cd5780601f106105a2576101008083540402835291602001916105cd565b820191906000526020600020905b8154815290600101906020018083116105b057829003601f168201915b5050505050908060020154908060030180546105e890611b08565b80601f016020809104026020016040519081016040528092919081815260200182805461061490611b08565b80156106615780601f1061063657610100808354040283529160200191610661565b820191906000526020600020905b81548152906001019060200180831161064457829003601f168201915b5050505050908060040160009054906101000a900473ffffffffffffffffffffffffffffffffffffffff16905085565b6106996112b2565b6000600260008373ffffffffffffffffffffffffffffffffffffffff1673ffffffffffffffffffffffffffffffffffffffff16815260200190815260200160002060000160016101000a81548160ff0219169083151502179055507f6104c637b94c6924ba582f11d228cf3203eb42d40b94a3ab64e60006032a93d58160405161072391906114b3565b60405180910390a150565b6107366112b2565b604051806040016040528082600381111561075457610753611527565b5b815260200160011515815250600260008473ffffffffffffffffffffffffffffffffffffffff1673ffffffffffffffffffffffffffffffffffffffff16815260200190815260200160002060008201518160000160006101000a81548160ff021916908360038111156107ca576107c9611527565b5b021790555060208201518160000160016101000a81548160ff0219169083151502179055509050507f9d298435d839e75ea5c40e98fc6aa208cc7c2a9ba6ffb5d9703e179bcf1b248e8282604051610823929190611b39565b60405180910390a15050565b606060006060600060606001861015801561084b575060015486105b61088a576040517f08c379a000000000000000000000000000000000000000000000000000000000815260040161088190611a56565b60405180910390fd5b60036000878152602001908152602001600020600101600360008881526020019081526020016000206002015460036000898152602001908152602001600020600301600360008a815260200190815260200160002060040160009054906101000a900473ffffffffffffffffffffffffffffffffffffffff16600360008b815260200190815260200160002060050184805461092690611b08565b80601f016020809104026020016040519081016040528092919081815260200182805461095290611b08565b801561099f5780601f106109745761010080835404028352916020019161099f565b820191906000526020600020905b81548152906001019060200180831161098257829003601f168201915b505050505094508280546109b290611b08565b80601f01602080910402602001604051908101604052809291908181526020018280546109de90611b08565b8015610a2b5780601f10610a0057610100808354040283529160200191610a2b565b820191906000526020600020905b815481529060010190602001808311610a0e57829003601f168201915b5050505050925080805480602002602001604051908101604052809291908181526020018280548015610ab357602002820191906000526020600020905b8160009054906101000a900473ffffffffffffffffffffffffffffffffffffffff1673ffffffffffffffffffffffffffffffffffffffff1681526020019060010190808311610a69575b505050505090509450945094509450945091939590929450565b610ad56112b2565b600073ffffffffffffffffffffffffffffffffffffffff168173ffffffffffffffffffffffffffffffffffffffff1603610b475760006040517f1e4fbdf7000000000000000000000000000000000000000000000000000000008152600401610b3e91906114b3565b60405180910390fd5b610b5081611339565b50565b600033905060011515600260008373ffffffffffffffffffffffffffffffffffffffff1673ffffffffffffffffffffffffffffffffffffffff16815260200190815260200160002060000160019054906101000a900460ff16151514610bee576040517f08c379a0000000000000000000000000000000000000000000000000000000008152600401610be590611bae565b60405180910390fd5b60006003811115610c0257610c01611527565b5b600260008373ffffffffffffffffffffffffffffffffffffffff1673ffffffffffffffffffffffffffffffffffffffff16815260200190815260200160002060000160009054906101000a900460ff166003811115610c6457610c63611527565b5b14610ca4576040517f08c379a0000000000000000000000000000000000000000000000000000000008152600401610c9b90611c1a565b60405180910390fd5b600060015490508060036000838152602001908152602001600020600001819055508686600360008481526020019081526020016000206001019182610ceb929190611e20565b508460036000838152602001908152602001600020600201819055508383600360008481526020019081526020016000206003019182610d2c929190611e20565b50816003600083815260200190815260200160002060040160006101000a81548173ffffffffffffffffffffffffffffffffffffffff021916908373ffffffffffffffffffffffffffffffffffffffff16021790555060036000828152602001908152602001600020600501829080600181540180825580915050600190039060005260206000200160009091909190916101000a81548173ffffffffffffffffffffffffffffffffffffffff021916908373ffffffffffffffffffffffffffffffffffffffff1602179055506001806000828254610e0b9190611ef0565b925050819055507fcc7b4929606ce963ba54b6a998f106f7748e78c03dc7f08fd77aeb28230eb2d381604051610e4191906115f1565b60405180910390a150505050505050565b813373ffffffffffffffffffffffffffffffffffffffff166003600083815260200190815260200160002060040160009054906101000a900473ffffffffffffffffffffffffffffffffffffffff1673ffffffffffffffffffffffffffffffffffffffff1614610eee576040517f1d08eb6400000000000000000000000000000000000000000000000000000000815260040160405180910390fd5b600033905060018410158015610f05575060015484105b610f44576040517f08c379a0000000000000000000000000000000000000000000000000000000008152600401610f3b90611a56565b60405180910390fd5b60011515600260008573ffffffffffffffffffffffffffffffffffffffff1673ffffffffffffffffffffffffffffffffffffffff16815260200190815260200160002060000160019054906101000a900460ff16151514610fda576040517f08c379a0000000000000000000000000000000000000000000000000000000008152600401610fd190611f70565b60405180910390fd5b600380811115610fed57610fec611527565b5b600260008373ffffffffffffffffffffffffffffffffffffffff1673ffffffffffffffffffffffffffffffffffffffff16815260200190815260200160002060000160009054906101000a900460ff16600381111561104f5761104e611527565b5b0361108f576040517f08c379a000000000000000000000000000000000000000000000000000000000815260040161108690611fdc565b60405180910390fd5b6001600260008373ffffffffffffffffffffffffffffffffffffffff1673ffffffffffffffffffffffffffffffffffffffff16815260200190815260200160002060000160009054906101000a900460ff1660038111156110f3576110f2611527565b5b6110fd9190612009565b60ff16600260008573ffffffffffffffffffffffffffffffffffffffff1673ffffffffffffffffffffffffffffffffffffffff16815260200190815260200160002060000160009054906101000a900460ff16600381111561116257611161611527565b5b60ff16146111a5576040517f08c379a000000000000000000000000000000000000000000000000000000000815260040161119c9061208a565b60405180910390fd5b826003600086815260200190815260200160002060040160006101000a81548173ffffffffffffffffffffffffffffffffffffffff021916908373ffffffffffffffffffffffffffffffffffffffff16021790555060036000858152602001908152602001600020600501839080600181540180825580915050600190039060005260206000200160009091909190916101000a81548173ffffffffffffffffffffffffffffffffffffffff021916908373ffffffffffffffffffffffffffffffffffffffff1602179055507ffb1218ff291ccbefa25b58131603cc93001ff09f257940a8896e43c4d36b446e8482856040516112a4939291906120aa565b60405180910390a150505050565b6112ba6113fd565b73ffffffffffffffffffffffffffffffffffffffff166112d8610502565b73ffffffffffffffffffffffffffffffffffffffff1614611337576112fb6113fd565b6040517f118cdaa700000000000000000000000000000000000000000000000000000000815260040161132e91906114b3565b60405180910390fd5b565b60008060009054906101000a900473ffffffffffffffffffffffffffffffffffffffff169050816000806101000a81548173ffffffffffffffffffffffffffffffffffffffff021916908373ffffffffffffffffffffffffffffffffffffffff1602179055508173ffffffffffffffffffffffffffffffffffffffff168173ffffffffffffffffffffffffffffffffffffffff167f8be0079c531659141344cd1fd0a4f28419497f9722a3daafe3b4186f6b6457e060405160405180910390a35050565b600033905090565b600080fd5b600080fd5b6000819050919050565b6114228161140f565b811461142d57600080fd5b50565b60008135905061143f81611419565b92915050565b60006020828403121561145b5761145a611405565b5b600061146984828501611430565b91505092915050565b600073ffffffffffffffffffffffffffffffffffffffff82169050919050565b600061149d82611472565b9050919050565b6114ad81611492565b82525050565b60006020820190506114c860008301846114a4565b92915050565b6114d781611492565b81146114e257600080fd5b50565b6000813590506114f4816114ce565b92915050565b6000602082840312156115105761150f611405565b5b600061151e848285016114e5565b91505092915050565b7f4e487b7100000000000000000000000000000000000000000000000000000000600052602160045260246000fd5b6004811061156757611566611527565b5b50565b600081905061157882611556565b919050565b60006115888261156a565b9050919050565b6115988161157d565b82525050565b60008115159050919050565b6115b38161159e565b82525050565b60006040820190506115ce600083018561158f565b6115db60208301846115aa565b9392505050565b6115eb8161140f565b82525050565b600060208201905061160660008301846115e2565b92915050565b600081519050919050565b600082825260208201905092915050565b6000819050602082019050919050565b61164181611492565b82525050565b60006116538383611638565b60208301905092915050565b6000602082019050919050565b60006116778261160c565b6116818185611617565b935061168c83611628565b8060005b838110156116bd5781516116a48882611647565b97506116af8361165f565b925050600181019050611690565b5085935050505092915050565b600060208201905081810360008301526116e4818461166c565b905092915050565b600081519050919050565b600082825260208201905092915050565b60005b8381101561172657808201518184015260208101905061170b565b60008484015250505050565b6000601f19601f8301169050919050565b600061174e826116ec565b61175881856116f7565b9350611768818560208601611708565b61177181611732565b840191505092915050565b600060a08201905061179160008301886115e2565b81810360208301526117a38187611743565b90506117b260408301866115e2565b81810360608301526117c48185611743565b90506117d360808301846114a4565b9695505050505050565b600481106117ea57600080fd5b50565b6000813590506117fc816117dd565b92915050565b6000806040838503121561181957611818611405565b5b6000611827858286016114e5565b9250506020611838858286016117ed565b9150509250929050565b600060a082019050818103600083015261185c8188611743565b905061186b60208301876115e2565b818103604083015261187d8186611743565b905061188c60608301856114a4565b818103608083015261189e818461166c565b90509695505050505050565b600080fd5b600080fd5b600080fd5b60008083601f8401126118cf576118ce6118aa565b5b8235905067ffffffffffffffff8111156118ec576118eb6118af565b5b602083019150836001820283011115611908576119076118b4565b5b9250929050565b60008060008060006060868803121561192b5761192a611405565b5b600086013567ffffffffffffffff8111156119495761194861140a565b5b611955888289016118b9565b9550955050602061196888828901611430565b935050604086013567ffffffffffffffff8111156119895761198861140a565b5b611995888289016118b9565b92509250509295509295909350565b600080604083850312156119bb576119ba611405565b5b60006119c985828601611430565b92505060206119da858286016114e5565b9150509250929050565b7f4173736574204944206d7573742062652077697468696e2076616c696420726160008201527f6e67650000000000000000000000000000000000000000000000000000000000602082015250565b6000611a406023836116f7565b9150611a4b826119e4565b604082019050919050565b60006020820190508181036000830152611a6f81611a33565b9050919050565b7f4e487b7100000000000000000000000000000000000000000000000000000000600052601160045260246000fd5b6000611ab08261140f565b9150611abb8361140f565b9250828203905081811115611ad357611ad2611a76565b5b92915050565b7f4e487b7100000000000000000000000000000000000000000000000000000000600052602260045260246000fd5b60006002820490506001821680611b2057607f821691505b602082108103611b3357611b32611ad9565b5b50919050565b6000604082019050611b4e60008301856114a4565b611b5b602083018461158f565b9392505050565b7f4163746f72206e6f7420656e61626c6564000000000000000000000000000000600082015250565b6000611b986011836116f7565b9150611ba382611b62565b602082019050919050565b60006020820190508181036000830152611bc781611b8b565b9050919050565b7f4163746f72277320726f6c65206d7573742062652050726f6475636572000000600082015250565b6000611c04601d836116f7565b9150611c0f82611bce565b602082019050919050565b60006020820190508181036000830152611c3381611bf7565b9050919050565b600082905092915050565b7f4e487b7100000000000000000000000000000000000000000000000000000000600052604160045260246000fd5b60008190508160005260206000209050919050565b60006020601f8301049050919050565b600082821b905092915050565b600060088302611cd67fffffffffffffffffffffffffffffffffffffffffffffffffffffffffffffffff82611c99565b611ce08683611c99565b95508019841693508086168417925050509392505050565b6000819050919050565b6000611d1d611d18611d138461140f565b611cf8565b61140f565b9050919050565b6000819050919050565b611d3783611d02565b611d4b611d4382611d24565b848454611ca6565b825550505050565b600090565b611d60611d53565b611d6b818484611d2e565b505050565b5b81811015611d8f57611d84600082611d58565b600181019050611d71565b5050565b601f821115611dd457611da581611c74565b611dae84611c89565b81016020851015611dbd578190505b611dd1611dc985611c89565b830182611d70565b50505b505050565b600082821c905092915050565b6000611df760001984600802611dd9565b1980831691505092915050565b6000611e108383611de6565b9150826002028217905092915050565b611e2a8383611c3a565b67ffffffffffffffff811115611e4357611e42611c45565b5b611e4d8254611b08565b611e58828285611d93565b6000601f831160018114611e875760008415611e75578287013590505b611e7f8582611e04565b865550611ee7565b601f198416611e9586611c74565b60005b82811015611ebd57848901358255600182019150602085019450602081019050611e98565b86831015611eda5784890135611ed6601f891682611de6565b8355505b6001600288020188555050505b50505050505050565b6000611efb8261140f565b9150611f068361140f565b9250828201905080821115611f1e57611f1d611a76565b5b92915050565b7f4e657874206f776e6572206973206e6f742076616c6964000000000000000000600082015250565b6000611f5a6017836116f7565b9150611f6582611f24565b602082019050919050565b60006020820190508181036000830152611f8981611f4d565b9050919050565b7f436f6e73756d65722063616e206e6f74207472616e7366657220617373657400600082015250565b6000611fc6601f836116f7565b9150611fd182611f90565b602082019050919050565b60006020820190508181036000830152611ff581611fb9565b9050919050565b600060ff82169050919050565b600061201482611ffc565b915061201f83611ffc565b9250828201905060ff81111561203857612037611a76565b5b92915050565b7f57726f6e67206e657874206f776e657220726f6c650000000000000000000000600082015250565b60006120746015836116f7565b915061207f8261203e565b602082019050919050565b600060208201905081810360008301526120a381612067565b9050919050565b60006060820190506120bf60008301866115e2565b6120cc60208301856114a4565b6120d960408301846114a4565b94935050505056fea264697066735822122004254f201e3063d0071daf387aff10e75d1f05df7863fa056337ae762e1c7e5664736f6c63430008140033",
  "linkReferences": {},
  "deployedLinkReferences": {}
}